{
  "_format": "hh-sol-artifact-1",
  "contractName": "Escrow",
  "sourceName": "contracts/Escrow.sol",
  "abi": [
    {
      "inputs": [],
      "stateMutability": "nonpayable",
      "type": "constructor"
    },
    {
      "stateMutability": "payable",
      "type": "fallback"
    },
    {
      "inputs": [],
      "name": "admin",
      "outputs": [
        {
          "internalType": "address",
          "name": "",
          "type": "address"
        }
      ],
      "stateMutability": "view",
      "type": "function"
    },
    {
      "inputs": [
        {
          "internalType": "uint256",
          "name": "id",
          "type": "uint256"
        },
        {
          "internalType": "address payable",
          "name": "buyer",
          "type": "address"
        },
        {
          "internalType": "address payable",
          "name": "seller",
          "type": "address"
        },
        {
          "internalType": "uint256",
          "name": "amount",
          "type": "uint256"
        }
      ],
      "name": "buy",
      "outputs": [
        {
          "internalType": "uint256",
          "name": "",
          "type": "uint256"
        }
      ],
      "stateMutability": "payable",
      "type": "function"
    },
    {
      "inputs": [],
      "name": "getBalance",
      "outputs": [
        {
          "internalType": "uint256",
          "name": "",
          "type": "uint256"
        }
      ],
      "stateMutability": "view",
      "type": "function"
    },
    {
      "inputs": [
        {
          "internalType": "uint256",
          "name": "_id",
          "type": "uint256"
        }
      ],
      "name": "withdraw",
      "outputs": [],
      "stateMutability": "nonpayable",
      "type": "function"
    },
    {
      "stateMutability": "payable",
      "type": "receive"
    }
  ],
  "bytecode": "0x608060405234801561001057600080fd5b50336000806101000a81548173ffffffffffffffffffffffffffffffffffffffff021916908373ffffffffffffffffffffffffffffffffffffffff1602179055506108fb806100606000396000f3fe6080604052600436106100435760003560e01c80630afc7bf41461004c57806312065fe01461007c5780632e1a7d4d146100a7578063f851a440146100d05761004a565b3661004a57005b005b610066600480360381019061006191906105db565b6100fb565b6040516100739190610651565b60405180910390f35b34801561008857600080fd5b50610091610349565b60405161009e9190610651565b60405180910390f35b3480156100b357600080fd5b506100ce60048036038101906100c9919061066c565b610351565b005b3480156100dc57600080fd5b506100e561051e565b6040516100f291906106ba565b60405180910390f35b60008073ffffffffffffffffffffffffffffffffffffffff168473ffffffffffffffffffffffffffffffffffffffff160361016b576040517f08c379a000000000000000000000000000000000000000000000000000000000815260040161016290610732565b60405180910390fd5b600073ffffffffffffffffffffffffffffffffffffffff168373ffffffffffffffffffffffffffffffffffffffff16036101da576040517f08c379a00000000000000000000000000000000000000000000000000000000081526004016101d19061079e565b60405180910390fd5b60006040518060c001604052808781526020018673ffffffffffffffffffffffffffffffffffffffff1681526020018573ffffffffffffffffffffffffffffffffffffffff16815260200160006003811115610239576102386107be565b5b815260200184815260200142815250905080600160008881526020019081526020016000206000820151816000015560208201518160010160006101000a81548173ffffffffffffffffffffffffffffffffffffffff021916908373ffffffffffffffffffffffffffffffffffffffff16021790555060408201518160020160006101000a81548173ffffffffffffffffffffffffffffffffffffffff021916908373ffffffffffffffffffffffffffffffffffffffff16021790555060608201518160020160146101000a81548160ff02191690836003811115610321576103206107be565b5b02179055506080820151816003015560a0820151816004015590505085915050949350505050565b600047905090565b60006001600083815260200190815260200160002090503373ffffffffffffffffffffffffffffffffffffffff168160010160009054906101000a900473ffffffffffffffffffffffffffffffffffffffff1673ffffffffffffffffffffffffffffffffffffffff16146103fa576040517f08c379a00000000000000000000000000000000000000000000000000000000081526004016103f190610839565b60405180910390fd5b6000600381111561040e5761040d6107be565b5b8160020160149054906101000a900460ff166003811115610432576104316107be565b5b14610472576040517f08c379a0000000000000000000000000000000000000000000000000000000008152600401610469906108a5565b60405180910390fd5b60028160020160146101000a81548160ff0219169083600381111561049a576104996107be565b5b021790555060008160030154905060008260020160009054906101000a900473ffffffffffffffffffffffffffffffffffffffff1690508073ffffffffffffffffffffffffffffffffffffffff166108fc839081150290604051600060405180830381858888f19350505050158015610517573d6000803e3d6000fd5b5050505050565b60008054906101000a900473ffffffffffffffffffffffffffffffffffffffff1681565b600080fd5b6000819050919050565b61055a81610547565b811461056557600080fd5b50565b60008135905061057781610551565b92915050565b600073ffffffffffffffffffffffffffffffffffffffff82169050919050565b60006105a88261057d565b9050919050565b6105b88161059d565b81146105c357600080fd5b50565b6000813590506105d5816105af565b92915050565b600080600080608085870312156105f5576105f4610542565b5b600061060387828801610568565b9450506020610614878288016105c6565b9350506040610625878288016105c6565b925050606061063687828801610568565b91505092959194509250565b61064b81610547565b82525050565b60006020820190506106666000830184610642565b92915050565b60006020828403121561068257610681610542565b5b600061069084828501610568565b91505092915050565b60006106a48261057d565b9050919050565b6106b481610699565b82525050565b60006020820190506106cf60008301846106ab565b92915050565b600082825260208201905092915050565b7f496e76616c69642041646472657373206f662042757965720000000000000000600082015250565b600061071c6018836106d5565b9150610727826106e6565b602082019050919050565b6000602082019050818103600083015261074b8161070f565b9050919050565b7f496e76616c69642041646472657373206f662053656c6c657200000000000000600082015250565b60006107886019836106d5565b915061079382610752565b602082019050919050565b600060208201905081810360008301526107b78161077b565b9050919050565b7f4e487b7100000000000000000000000000000000000000000000000000000000600052602160045260246000fd5b7f4e6f204163636573730000000000000000000000000000000000000000000000600082015250565b60006108236009836106d5565b915061082e826107ed565b602082019050919050565b6000602082019050818103600083015261085281610816565b9050919050565b7f43616e7420576974686472617700000000000000000000000000000000000000600082015250565b600061088f600d836106d5565b915061089a82610859565b602082019050919050565b600060208201905081810360008301526108be81610882565b905091905056fea2646970667358221220b35c5e1edb52182935d62d1e60e335476fc85498dc1cc0b5f49ef25415cdd43264736f6c63430008130033",
  "linkReferences": {},
  "deployedLinkReferences": {}
}